{
    "contractName": "Marketplace",
    "abi": [
        {
            "inputs": [],
            "name": "Marketplace__Address_notApproved",
            "type": "error"
        },
        {
            "inputs": [
                {
                    "internalType": "address",
                    "name": "nftAddress",
                    "type": "address"
                },
                {
                    "internalType": "uint256",
                    "name": "tokenId",
                    "type": "uint256"
                }
            ],
            "name": "Marketplace__NftAlreadylisted",
            "type": "error"
        },
        {
            "inputs": [],
            "name": "Marketplace__Only_NftListed",
            "type": "error"
        },
        {
            "inputs": [],
            "name": "Marketplace__PriceNotmet",
            "type": "error"
        },
        {
            "inputs": [],
            "name": "Marketplace__PriceShouldbeGreaterThanZero",
            "type": "error"
        },
        {
            "inputs": [],
            "name": "Marketplace__isnotListed",
            "type": "error"
        },
        {
            "inputs": [],
            "name": "Marketplace__noProceeds",
            "type": "error"
        },
        {
            "inputs": [],
            "name": "TransactionReverted",
            "type": "error"
        },
        {
            "anonymous": false,
            "inputs": [
                {
                    "indexed": true,
                    "internalType": "address",
                    "name": "nftcontractaddress",
                    "type": "address"
                },
                {
                    "indexed": true,
                    "internalType": "address",
                    "name": "soldto",
                    "type": "address"
                },
                {
                    "indexed": true,
                    "internalType": "uint256",
                    "name": "tokenId",
                    "type": "uint256"
                },
                {
                    "indexed": false,
                    "internalType": "uint256",
                    "name": "price",
                    "type": "uint256"
                }
            ],
            "name": "Itembought",
            "type": "event"
        },
        {
            "anonymous": false,
            "inputs": [
                {
                    "indexed": true,
                    "internalType": "address",
                    "name": "seller",
                    "type": "address"
                },
                {
                    "indexed": true,
                    "internalType": "address",
                    "name": "nftcontractaddress",
                    "type": "address"
                },
                {
                    "indexed": false,
                    "internalType": "uint256",
                    "name": "tokenId",
                    "type": "uint256"
                }
            ],
            "name": "Itemcancelled",
            "type": "event"
        },
        {
            "anonymous": false,
            "inputs": [
                {
                    "indexed": true,
                    "internalType": "address",
                    "name": "seller",
                    "type": "address"
                },
                {
                    "indexed": true,
                    "internalType": "address",
                    "name": "nftAddress",
                    "type": "address"
                },
                {
                    "indexed": true,
                    "internalType": "uint256",
                    "name": "tokenId",
                    "type": "uint256"
                },
                {
                    "indexed": false,
                    "internalType": "uint256",
                    "name": "price",
                    "type": "uint256"
                }
            ],
            "name": "Itemlisted",
            "type": "event"
        },
        {
            "anonymous": false,
            "inputs": [
                {
                    "indexed": true,
                    "internalType": "address",
                    "name": "nftcontractaddress",
                    "type": "address"
                },
                {
                    "indexed": true,
                    "internalType": "uint256",
                    "name": "tokenId",
                    "type": "uint256"
                },
                {
                    "indexed": true,
                    "internalType": "uint256",
                    "name": "newprice",
                    "type": "uint256"
                }
            ],
            "name": "ListingUpdated",
            "type": "event"
        },
        {
            "inputs": [
                {
                    "internalType": "address",
                    "name": "nftcontractAddress",
                    "type": "address"
                },
                {
                    "internalType": "uint256",
                    "name": "tokenId",
                    "type": "uint256"
                }
            ],
            "name": "BuyNfts",
            "outputs": [],
            "stateMutability": "payable",
            "type": "function"
        },
        {
            "inputs": [
                {
                    "internalType": "address",
                    "name": "nftcontractaddress",
                    "type": "address"
                },
                {
                    "internalType": "uint256",
                    "name": "tokenId",
                    "type": "uint256"
                }
            ],
            "name": "Cancelisting",
            "outputs": [],
            "stateMutability": "nonpayable",
            "type": "function"
        },
        {
            "inputs": [
                {
                    "internalType": "address",
                    "name": "sender",
                    "type": "address"
                }
            ],
            "name": "GetProceeds",
            "outputs": [
                {
                    "internalType": "uint256",
                    "name": "",
                    "type": "uint256"
                }
            ],
            "stateMutability": "view",
            "type": "function"
        },
        {
            "inputs": [
                {
                    "internalType": "address",
                    "name": "nftcontractaddress",
                    "type": "address"
                },
                {
                    "internalType": "uint256",
                    "name": "tokenId",
                    "type": "uint256"
                }
            ],
            "name": "Getlisting",
            "outputs": [
                {
                    "components": [
                        {
                            "internalType": "uint256",
                            "name": "price",
                            "type": "uint256"
                        },
                        {
                            "internalType": "address",
                            "name": "seller",
                            "type": "address"
                        }
                    ],
                    "internalType": "struct Marketplace.Listing",
                    "name": "",
                    "type": "tuple"
                }
            ],
            "stateMutability": "view",
            "type": "function"
        },
        {
            "inputs": [
                {
                    "internalType": "address",
                    "name": "NftcontractAddress",
                    "type": "address"
                },
                {
                    "internalType": "uint256",
                    "name": "tokenID",
                    "type": "uint256"
                },
                {
                    "internalType": "uint256",
                    "name": "Price",
                    "type": "uint256"
                }
            ],
            "name": "ListNfts",
            "outputs": [],
            "stateMutability": "nonpayable",
            "type": "function"
        },
        {
            "inputs": [
                {
                    "internalType": "address",
                    "name": "nftcontractaddress",
                    "type": "address"
                },
                {
                    "internalType": "uint256",
                    "name": "tokenId",
                    "type": "uint256"
                },
                {
                    "internalType": "uint256",
                    "name": "newlistingPrice",
                    "type": "uint256"
                }
            ],
            "name": "UpdateListing",
            "outputs": [],
            "stateMutability": "nonpayable",
            "type": "function"
        },
        {
            "inputs": [],
            "name": "withdrawProcess",
            "outputs": [],
            "stateMutability": "nonpayable",
            "type": "function"
        }
    ],
    "bytecode": "608060405234801561001057600080fd5b506001600055610ae4806100256000396000f3fe6080604052600436106100705760003560e01c806399e265961161004e57806399e26596146100e85780639bc2219214610108578063b9dfd5aa14610128578063d867ec0d1461014857600080fd5b80630e8ea80f146100755780632f5515561461008a57806362b50a9f146100d3575b600080fd5b6100886100833660046109eb565b61018c565b005b34801561009657600080fd5b506100aa6100a53660046109eb565b61034a565b60408051825181526020928301516001600160a01b031692810192909252015b60405180910390f35b3480156100df57600080fd5b5061008861039a565b3480156100f457600080fd5b50610088610103366004610a17565b610444565b34801561011457600080fd5b506100886101233660046109eb565b610585565b34801561013457600080fd5b50610088610143366004610a17565b6106dd565b34801561015457600080fd5b5061017e610163366004610a4c565b6001600160a01b031660009081526002602052604090205490565b6040519081526020016100ca565b6001600160a01b038216600090815260016020908152604080832084845290915290208054839183916101d25760405163e0bb423d60e01b815260040160405180910390fd5b6101da61097a565b6001600160a01b03851660009081526001602090815260408083208784529091529020805434101561021f5760405163be92210360e01b815260040160405180910390fd5b60018101546001600160a01b0316600090815260026020526040902054610247903490610a70565b600182810180546001600160a01b039081166000908152600260209081526040808320969096558b83168083528582528683208c8452909152858220918255930180546001600160a01b031916905590549251632142170760e11b81529216600483015233602483015260448201879052906342842e0e90606401600060405180830381600087803b1580156102dc57600080fd5b505af11580156102f0573d6000803e3d6000fd5b505082546040519081528792503391506001600160a01b038916907f26579274b49c225fca76757e70b34bf8a22a2a82ca63bac8396b29e5c2dfd9239060200160405180910390a4506103436001600055565b5050505050565b604080518082018252600080825260209182018190526001600160a01b03858116825260018084528483208684528452918490208451808601909552805485529091015416908201525b92915050565b33600090815260026020526040902054806103c857604051636d249d6f60e01b815260040160405180910390fd5b336000818152600260205260408082208290555190919083908381818185875af1925050503d8060008114610419576040519150601f19603f3d011682016040523d82523d6000602084013e61041e565b606091505b5050905080610440576040516348b3e13d60e11b815260040160405180910390fd5b5050565b6040516331a9108f60e11b8152600481018390528390839082906000906001600160a01b03831690636352211e90602401602060405180830381865afa158015610492573d6000803e3d6000fd5b505050506040513d601f19601f820116820180604052508101906104b69190610a91565b90506001600160a01b03811633146104e157604051637408a38360e01b815260040160405180910390fd5b6001600160a01b038716600090815260016020908152604080832089845290915290208054889188916105275760405163e0bb423d60e01b815260040160405180910390fd5b6001600160a01b038a1660008181526001602090815260408083208d84529091528082208b9055518a928c9290917f3e11d82182e9689c0f7ffc3ce2a4a057e1fc080032c0dcce9c269258c874a86c9190a450505050505050505050565b6040516331a9108f60e11b8152600481018290528290829082906000906001600160a01b03831690636352211e90602401602060405180830381865afa1580156105d3573d6000803e3d6000fd5b505050506040513d601f19601f820116820180604052508101906105f79190610a91565b90506001600160a01b038116331461062257604051637408a38360e01b815260040160405180910390fd5b6001600160a01b038616600090815260016020908152604080832088845290915290208054879187916106685760405163e0bb423d60e01b815260040160405180910390fd5b6001600160a01b03891660008181526001602081815260408084208d855282528084209384559290910180546001600160a01b031916905590518a815233917fc24cc01cdbb0c2fcf310af07eafffaa9984dbdb4c5ddfbfa41da23e99f5da3e7910160405180910390a3505050505050505050565b6001600160a01b038316600090815260016020908152604080832085845290915290208054849133918591901561073e5760405163de32965360e01b81526001600160a01b0385166004820152602481018390526044015b60405180910390fd5b6040516331a9108f60e11b8152600481018790528790879082906000906001600160a01b03831690636352211e90602401602060405180830381865afa15801561078c573d6000803e3d6000fd5b505050506040513d601f19601f820116820180604052508101906107b09190610a91565b90506001600160a01b03811633146107db57604051637408a38360e01b815260040160405180910390fd5b886000036107fc57604051630424c88b60e31b815260040160405180910390fd5b60405163020604bf60e21b8152600481018b90528b9030906001600160a01b0383169063081812fc90602401602060405180830381865afa158015610845573d6000803e3d6000fd5b505050506040513d601f19601f820116820180604052508101906108699190610a91565b6001600160a01b03161461089057604051630562d2bd60e51b815260040160405180910390fd5b60405180604001604052808b8152602001336001600160a01b0316815250600160008e6001600160a01b03166001600160a01b0316815260200190815260200160002060008d81526020019081526020016000206000820151816000015560208201518160010160006101000a8154816001600160a01b0302191690836001600160a01b031602179055509050508a8c6001600160a01b0316336001600160a01b03167f8d93b0f2756dd174d03e0a0f31a06f28a92a8e95ef378aeeb5ddf8066040baab8d60405161096491815260200190565b60405180910390a4505050505050505050505050565b6002600054036109cc5760405162461bcd60e51b815260206004820152601f60248201527f5265656e7472616e637947756172643a207265656e7472616e742063616c6c006044820152606401610735565b6002600055565b6001600160a01b03811681146109e857600080fd5b50565b600080604083850312156109fe57600080fd5b8235610a09816109d3565b946020939093013593505050565b600080600060608486031215610a2c57600080fd5b8335610a37816109d3565b95602085013595506040909401359392505050565b600060208284031215610a5e57600080fd5b8135610a69816109d3565b9392505050565b8082018082111561039457634e487b7160e01b600052601160045260246000fd5b600060208284031215610aa357600080fd5b8151610a69816109d356fea2646970667358221220f8a4073817cbec9d8b51bfb9bcf1ef46989ce197e77798ea5572fb38ad3ca5cf64736f6c63430008130033",
    "sourcePath": "/media/ashish_kumar/New Volume/nft-marketplace/Contracts/contracts/NFTMarketplace.sol",
    "compiler": {
        "name": "solc",
        "version": "0.8.19+commit.7dd6d404"
    },
    "functionHashes": {
        "BuyNfts(address,uint256)": "0e8ea80f",
        "Cancelisting(address,uint256)": "9bc22192",
        "GetProceeds(address)": "d867ec0d",
        "Getlisting(address,uint256)": "2f551556",
        "ListNfts(address,uint256,uint256)": "b9dfd5aa",
        "UpdateListing(address,uint256,uint256)": "99e26596",
        "withdrawProcess()": "62b50a9f"
    },
    "gasEstimates": {
        "creation": {
            "codeDepositCost": "557600",
            "executionCost": "22700",
            "totalCost": "580300"
        },
        "external": {
            "BuyNfts(address,uint256)": "infinite",
            "Cancelisting(address,uint256)": "infinite",
            "GetProceeds(address)": "2597",
            "Getlisting(address,uint256)": "4939",
            "ListNfts(address,uint256,uint256)": "infinite",
            "UpdateListing(address,uint256,uint256)": "infinite",
            "withdrawProcess()": "infinite"
        }
    }
}