{
    "contractName": "NFT",
    "abi": [
        {
            "inputs": [
                {
                    "internalType": "address",
                    "name": "_marketAddress",
                    "type": "address"
                }
            ],
            "stateMutability": "nonpayable",
            "type": "constructor"
        },
        {
            "anonymous": false,
            "inputs": [
                {
                    "indexed": true,
                    "internalType": "address",
                    "name": "owner",
                    "type": "address"
                },
                {
                    "indexed": true,
                    "internalType": "address",
                    "name": "approved",
                    "type": "address"
                },
                {
                    "indexed": true,
                    "internalType": "uint256",
                    "name": "tokenId",
                    "type": "uint256"
                }
            ],
            "name": "Approval",
            "type": "event"
        },
        {
            "anonymous": false,
            "inputs": [
                {
                    "indexed": true,
                    "internalType": "address",
                    "name": "owner",
                    "type": "address"
                },
                {
                    "indexed": true,
                    "internalType": "address",
                    "name": "operator",
                    "type": "address"
                },
                {
                    "indexed": false,
                    "internalType": "bool",
                    "name": "approved",
                    "type": "bool"
                }
            ],
            "name": "ApprovalForAll",
            "type": "event"
        },
        {
            "anonymous": false,
            "inputs": [
                {
                    "indexed": false,
                    "internalType": "uint256",
                    "name": "_fromTokenId",
                    "type": "uint256"
                },
                {
                    "indexed": false,
                    "internalType": "uint256",
                    "name": "_toTokenId",
                    "type": "uint256"
                }
            ],
            "name": "BatchMetadataUpdate",
            "type": "event"
        },
        {
            "anonymous": false,
            "inputs": [
                {
                    "indexed": false,
                    "internalType": "uint256",
                    "name": "_tokenId",
                    "type": "uint256"
                }
            ],
            "name": "MetadataUpdate",
            "type": "event"
        },
        {
            "anonymous": false,
            "inputs": [
                {
                    "indexed": true,
                    "internalType": "address",
                    "name": "from",
                    "type": "address"
                },
                {
                    "indexed": true,
                    "internalType": "address",
                    "name": "to",
                    "type": "address"
                },
                {
                    "indexed": true,
                    "internalType": "uint256",
                    "name": "tokenId",
                    "type": "uint256"
                }
            ],
            "name": "Transfer",
            "type": "event"
        },
        {
            "anonymous": false,
            "inputs": [
                {
                    "indexed": true,
                    "internalType": "uint256",
                    "name": "tokenId",
                    "type": "uint256"
                },
                {
                    "indexed": false,
                    "internalType": "address",
                    "name": "tokenOwner",
                    "type": "address"
                }
            ],
            "name": "tokenCreated",
            "type": "event"
        },
        {
            "inputs": [
                {
                    "internalType": "address",
                    "name": "to",
                    "type": "address"
                },
                {
                    "internalType": "uint256",
                    "name": "tokenId",
                    "type": "uint256"
                }
            ],
            "name": "approve",
            "outputs": [],
            "stateMutability": "nonpayable",
            "type": "function"
        },
        {
            "inputs": [
                {
                    "internalType": "address",
                    "name": "owner",
                    "type": "address"
                }
            ],
            "name": "balanceOf",
            "outputs": [
                {
                    "internalType": "uint256",
                    "name": "",
                    "type": "uint256"
                }
            ],
            "stateMutability": "view",
            "type": "function"
        },
        {
            "inputs": [
                {
                    "internalType": "uint256",
                    "name": "tokenId",
                    "type": "uint256"
                }
            ],
            "name": "getApproved",
            "outputs": [
                {
                    "internalType": "address",
                    "name": "",
                    "type": "address"
                }
            ],
            "stateMutability": "view",
            "type": "function"
        },
        {
            "inputs": [
                {
                    "internalType": "address",
                    "name": "owner",
                    "type": "address"
                },
                {
                    "internalType": "address",
                    "name": "operator",
                    "type": "address"
                }
            ],
            "name": "isApprovedForAll",
            "outputs": [
                {
                    "internalType": "bool",
                    "name": "",
                    "type": "bool"
                }
            ],
            "stateMutability": "view",
            "type": "function"
        },
        {
            "inputs": [
                {
                    "internalType": "string",
                    "name": "tokenURI",
                    "type": "string"
                }
            ],
            "name": "mintToken",
            "outputs": [
                {
                    "internalType": "uint256",
                    "name": "",
                    "type": "uint256"
                }
            ],
            "stateMutability": "nonpayable",
            "type": "function"
        },
        {
            "inputs": [],
            "name": "name",
            "outputs": [
                {
                    "internalType": "string",
                    "name": "",
                    "type": "string"
                }
            ],
            "stateMutability": "view",
            "type": "function"
        },
        {
            "inputs": [
                {
                    "internalType": "uint256",
                    "name": "tokenId",
                    "type": "uint256"
                }
            ],
            "name": "ownerOf",
            "outputs": [
                {
                    "internalType": "address",
                    "name": "",
                    "type": "address"
                }
            ],
            "stateMutability": "view",
            "type": "function"
        },
        {
            "inputs": [
                {
                    "internalType": "address",
                    "name": "from",
                    "type": "address"
                },
                {
                    "internalType": "address",
                    "name": "to",
                    "type": "address"
                },
                {
                    "internalType": "uint256",
                    "name": "tokenId",
                    "type": "uint256"
                }
            ],
            "name": "safeTransferFrom",
            "outputs": [],
            "stateMutability": "nonpayable",
            "type": "function"
        },
        {
            "inputs": [
                {
                    "internalType": "address",
                    "name": "from",
                    "type": "address"
                },
                {
                    "internalType": "address",
                    "name": "to",
                    "type": "address"
                },
                {
                    "internalType": "uint256",
                    "name": "tokenId",
                    "type": "uint256"
                },
                {
                    "internalType": "bytes",
                    "name": "data",
                    "type": "bytes"
                }
            ],
            "name": "safeTransferFrom",
            "outputs": [],
            "stateMutability": "nonpayable",
            "type": "function"
        },
        {
            "inputs": [
                {
                    "internalType": "address",
                    "name": "operator",
                    "type": "address"
                },
                {
                    "internalType": "bool",
                    "name": "approved",
                    "type": "bool"
                }
            ],
            "name": "setApprovalForAll",
            "outputs": [],
            "stateMutability": "nonpayable",
            "type": "function"
        },
        {
            "inputs": [
                {
                    "internalType": "bytes4",
                    "name": "interfaceId",
                    "type": "bytes4"
                }
            ],
            "name": "supportsInterface",
            "outputs": [
                {
                    "internalType": "bool",
                    "name": "",
                    "type": "bool"
                }
            ],
            "stateMutability": "view",
            "type": "function"
        },
        {
            "inputs": [],
            "name": "symbol",
            "outputs": [
                {
                    "internalType": "string",
                    "name": "",
                    "type": "string"
                }
            ],
            "stateMutability": "view",
            "type": "function"
        },
        {
            "inputs": [
                {
                    "internalType": "uint256",
                    "name": "tokenId",
                    "type": "uint256"
                }
            ],
            "name": "tokenURI",
            "outputs": [
                {
                    "internalType": "string",
                    "name": "",
                    "type": "string"
                }
            ],
            "stateMutability": "view",
            "type": "function"
        },
        {
            "inputs": [
                {
                    "internalType": "address",
                    "name": "from",
                    "type": "address"
                },
                {
                    "internalType": "address",
                    "name": "to",
                    "type": "address"
                },
                {
                    "internalType": "uint256",
                    "name": "tokenId",
                    "type": "uint256"
                }
            ],
            "name": "transferFrom",
            "outputs": [],
            "stateMutability": "nonpayable",
            "type": "function"
        }
    ],
    "bytecode": "60806040523480156200001157600080fd5b506040516200195b3803806200195b8339810160408190526200003491620000bf565b6040518060400160405280600c81526020016b2837b63cb3b7b72a37b5b2b760a11b8152506040518060400160405280600381526020016250544b60e81b815250816000908162000086919062000196565b50600162000095828262000196565b5050600880546001600160a01b0319166001600160a01b0393909316929092179091555062000262565b600060208284031215620000d257600080fd5b81516001600160a01b0381168114620000ea57600080fd5b9392505050565b634e487b7160e01b600052604160045260246000fd5b600181811c908216806200011c57607f821691505b6020821081036200013d57634e487b7160e01b600052602260045260246000fd5b50919050565b601f8211156200019157600081815260208120601f850160051c810160208610156200016c5750805b601f850160051c820191505b818110156200018d5782815560010162000178565b5050505b505050565b81516001600160401b03811115620001b257620001b2620000f1565b620001ca81620001c3845462000107565b8462000143565b602080601f831160018114620002025760008415620001e95750858301515b600019600386901b1c1916600185901b1785556200018d565b600085815260208120601f198616915b82811015620002335788860151825594840194600190910190840162000212565b5085821015620002525787850151600019600388901b60f8161c191681555b5050505050600190811b01905550565b6116e980620002726000396000f3fe608060405234801561001057600080fd5b50600436106100ea5760003560e01c80636352211e1161008c578063a22cb46511610066578063a22cb465146101e1578063b88d4fde146101f4578063c87b56dd14610207578063e985e9c51461021a57600080fd5b80636352211e146101b357806370a08231146101c657806395d89b41146101d957600080fd5b8063095ea7b3116100c8578063095ea7b31461015757806323b872dd1461016c57806333eba49a1461017f57806342842e0e146101a057600080fd5b806301ffc9a7146100ef57806306fdde0314610117578063081812fc1461012c575b600080fd5b6101026100fd3660046110f5565b610256565b60405190151581526020015b60405180910390f35b61011f610281565b60405161010e9190611162565b61013f61013a366004611175565b610313565b6040516001600160a01b03909116815260200161010e565b61016a6101653660046111aa565b61033a565b005b61016a61017a3660046111d4565b610454565b61019261018d366004611210565b610485565b60405190815260200161010e565b61016a6101ae3660046111d4565b61053f565b61013f6101c1366004611175565b61055a565b6101926101d4366004611282565b6105ba565b61011f610640565b61016a6101ef36600461129d565b61064f565b61016a6102023660046112ef565b61065e565b61011f610215366004611175565b610696565b6101026102283660046113cb565b6001600160a01b03918216600090815260056020908152604080832093909416825291909152205460ff1690565b60006001600160e01b03198216632483248360e11b148061027b575061027b826107a6565b92915050565b606060008054610290906113fe565b80601f01602080910402602001604051908101604052809291908181526020018280546102bc906113fe565b80156103095780601f106102de57610100808354040283529160200191610309565b820191906000526020600020905b8154815290600101906020018083116102ec57829003601f168201915b5050505050905090565b600061031e826107f6565b506000908152600460205260409020546001600160a01b031690565b60006103458261055a565b9050806001600160a01b0316836001600160a01b0316036103b75760405162461bcd60e51b815260206004820152602160248201527f4552433732313a20617070726f76616c20746f2063757272656e74206f776e656044820152603960f91b60648201526084015b60405180910390fd5b336001600160a01b03821614806103d357506103d38133610228565b6104455760405162461bcd60e51b815260206004820152603d60248201527f4552433732313a20617070726f76652063616c6c6572206973206e6f7420746f60448201527f6b656e206f776e6572206f7220617070726f76656420666f7220616c6c00000060648201526084016103ae565b61044f8383610858565b505050565b61045e33826108c6565b61047a5760405162461bcd60e51b81526004016103ae90611438565b61044f838383610944565b6000610495600780546001019055565b60006104a060075490565b90506104ac3382610aa8565b6104ec8185858080601f016020809104026020016040519081016040528093929190818152602001838380828437600092019190915250610c3392505050565b600854610503906001600160a01b0316600161064f565b60405133815281907f3eded76f3b6a525322906e35c994b393ec3d69984e948ee6dce59e7ed7ed9d979060200160405180910390a29392505050565b61044f8383836040518060200160405280600081525061065e565b6000818152600260205260408120546001600160a01b03168061027b5760405162461bcd60e51b8152602060048201526018602482015277115490cdcc8c4e881a5b9d985b1a59081d1bdad95b88125160421b60448201526064016103ae565b60006001600160a01b0382166106245760405162461bcd60e51b815260206004820152602960248201527f4552433732313a2061646472657373207a65726f206973206e6f7420612076616044820152683634b21037bbb732b960b91b60648201526084016103ae565b506001600160a01b031660009081526003602052604090205490565b606060018054610290906113fe565b61065a338383610cfe565b5050565b61066833836108c6565b6106845760405162461bcd60e51b81526004016103ae90611438565b61069084848484610dcc565b50505050565b60606106a1826107f6565b600082815260066020526040812080546106ba906113fe565b80601f01602080910402602001604051908101604052809291908181526020018280546106e6906113fe565b80156107335780601f1061070857610100808354040283529160200191610733565b820191906000526020600020905b81548152906001019060200180831161071657829003601f168201915b50505050509050600061075160408051602081019091526000815290565b90508051600003610763575092915050565b81511561079557808260405160200161077d929190611485565b60405160208183030381529060405292505050919050565b61079e84610dff565b949350505050565b60006001600160e01b031982166380ac58cd60e01b14806107d757506001600160e01b03198216635b5e139f60e01b145b8061027b57506301ffc9a760e01b6001600160e01b031983161461027b565b6000818152600260205260409020546001600160a01b03166108555760405162461bcd60e51b8152602060048201526018602482015277115490cdcc8c4e881a5b9d985b1a59081d1bdad95b88125160421b60448201526064016103ae565b50565b600081815260046020526040902080546001600160a01b0319166001600160a01b038416908117909155819061088d8261055a565b6001600160a01b03167f8c5be1e5ebec7d5bd14f71427d1e84f3dd0314c0f7b2291e5b200ac8c7c3b92560405160405180910390a45050565b6000806108d28361055a565b9050806001600160a01b0316846001600160a01b0316148061091957506001600160a01b0380821660009081526005602090815260408083209388168352929052205460ff165b8061079e5750836001600160a01b031661093284610313565b6001600160a01b031614949350505050565b826001600160a01b03166109578261055a565b6001600160a01b03161461097d5760405162461bcd60e51b81526004016103ae906114b4565b6001600160a01b0382166109df5760405162461bcd60e51b8152602060048201526024808201527f4552433732313a207472616e7366657220746f20746865207a65726f206164646044820152637265737360e01b60648201526084016103ae565b826001600160a01b03166109f28261055a565b6001600160a01b031614610a185760405162461bcd60e51b81526004016103ae906114b4565b600081815260046020908152604080832080546001600160a01b03199081169091556001600160a01b0387811680865260038552838620805460001901905590871680865283862080546001019055868652600290945282852080549092168417909155905184937fddf252ad1be2c89b69c2b068fc378daa952ba7f163c4a11628f55a4df523b3ef91a4505050565b6001600160a01b038216610afe5760405162461bcd60e51b815260206004820181905260248201527f4552433732313a206d696e7420746f20746865207a65726f206164647265737360448201526064016103ae565b6000818152600260205260409020546001600160a01b031615610b635760405162461bcd60e51b815260206004820152601c60248201527f4552433732313a20746f6b656e20616c7265616479206d696e7465640000000060448201526064016103ae565b6000818152600260205260409020546001600160a01b031615610bc85760405162461bcd60e51b815260206004820152601c60248201527f4552433732313a20746f6b656e20616c7265616479206d696e7465640000000060448201526064016103ae565b6001600160a01b038216600081815260036020908152604080832080546001019055848352600290915280822080546001600160a01b0319168417905551839291907fddf252ad1be2c89b69c2b068fc378daa952ba7f163c4a11628f55a4df523b3ef908290a45050565b6000828152600260205260409020546001600160a01b0316610cae5760405162461bcd60e51b815260206004820152602e60248201527f45524337323155524953746f726167653a2055524920736574206f66206e6f6e60448201526d32bc34b9ba32b73a103a37b5b2b760911b60648201526084016103ae565b6000828152600660205260409020610cc68282611547565b506040518281527ff8e1a15aba9398e019f0b49df1a4fde98ee17ae345cb5f6b5e2c27f5033e8ce79060200160405180910390a15050565b816001600160a01b0316836001600160a01b031603610d5f5760405162461bcd60e51b815260206004820152601960248201527f4552433732313a20617070726f766520746f2063616c6c65720000000000000060448201526064016103ae565b6001600160a01b03838116600081815260056020908152604080832094871680845294825291829020805460ff191686151590811790915591519182527f17307eab39ab6107e8899845ad3d59bd9653f200f220920489ca2b5937696c31910160405180910390a3505050565b610dd7848484610944565b610de384848484610e73565b6106905760405162461bcd60e51b81526004016103ae90611607565b6060610e0a826107f6565b6000610e2160408051602081019091526000815290565b90506000815111610e415760405180602001604052806000815250610e6c565b80610e4b84610f74565b604051602001610e5c929190611485565b6040516020818303038152906040525b9392505050565b60006001600160a01b0384163b15610f6957604051630a85bd0160e11b81526001600160a01b0385169063150b7a0290610eb7903390899088908890600401611659565b6020604051808303816000875af1925050508015610ef2575060408051601f3d908101601f19168201909252610eef91810190611696565b60015b610f4f573d808015610f20576040519150601f19603f3d011682016040523d82523d6000602084013e610f25565b606091505b508051600003610f475760405162461bcd60e51b81526004016103ae90611607565b805181602001fd5b6001600160e01b031916630a85bd0160e11b14905061079e565b506001949350505050565b60606000610f8183611007565b600101905060008167ffffffffffffffff811115610fa157610fa16112d9565b6040519080825280601f01601f191660200182016040528015610fcb576020820181803683370190505b5090508181016020015b600019016f181899199a1a9b1b9c1cb0b131b232b360811b600a86061a8153600a8504945084610fd557509392505050565b60008072184f03e93ff9f4daa797ed6e38ed64bf6a1f0160401b83106110465772184f03e93ff9f4daa797ed6e38ed64bf6a1f0160401b830492506040015b6d04ee2d6d415b85acef81000000008310611072576d04ee2d6d415b85acef8100000000830492506020015b662386f26fc10000831061109057662386f26fc10000830492506010015b6305f5e10083106110a8576305f5e100830492506008015b61271083106110bc57612710830492506004015b606483106110ce576064830492506002015b600a831061027b5760010192915050565b6001600160e01b03198116811461085557600080fd5b60006020828403121561110757600080fd5b8135610e6c816110df565b60005b8381101561112d578181015183820152602001611115565b50506000910152565b6000815180845261114e816020860160208601611112565b601f01601f19169290920160200192915050565b602081526000610e6c6020830184611136565b60006020828403121561118757600080fd5b5035919050565b80356001600160a01b03811681146111a557600080fd5b919050565b600080604083850312156111bd57600080fd5b6111c68361118e565b946020939093013593505050565b6000806000606084860312156111e957600080fd5b6111f28461118e565b92506112006020850161118e565b9150604084013590509250925092565b6000806020838503121561122357600080fd5b823567ffffffffffffffff8082111561123b57600080fd5b818501915085601f83011261124f57600080fd5b81358181111561125e57600080fd5b86602082850101111561127057600080fd5b60209290920196919550909350505050565b60006020828403121561129457600080fd5b610e6c8261118e565b600080604083850312156112b057600080fd5b6112b98361118e565b9150602083013580151581146112ce57600080fd5b809150509250929050565b634e487b7160e01b600052604160045260246000fd5b6000806000806080858703121561130557600080fd5b61130e8561118e565b935061131c6020860161118e565b925060408501359150606085013567ffffffffffffffff8082111561134057600080fd5b818701915087601f83011261135457600080fd5b813581811115611366576113666112d9565b604051601f8201601f19908116603f0116810190838211818310171561138e5761138e6112d9565b816040528281528a60208487010111156113a757600080fd5b82602086016020830137600060208483010152809550505050505092959194509250565b600080604083850312156113de57600080fd5b6113e78361118e565b91506113f56020840161118e565b90509250929050565b600181811c9082168061141257607f821691505b60208210810361143257634e487b7160e01b600052602260045260246000fd5b50919050565b6020808252602d908201527f4552433732313a2063616c6c6572206973206e6f7420746f6b656e206f776e6560408201526c1c881bdc88185c1c1c9bdd9959609a1b606082015260800190565b60008351611497818460208801611112565b8351908301906114ab818360208801611112565b01949350505050565b60208082526025908201527f4552433732313a207472616e736665722066726f6d20696e636f72726563742060408201526437bbb732b960d91b606082015260800190565b601f82111561044f57600081815260208120601f850160051c810160208610156115205750805b601f850160051c820191505b8181101561153f5782815560010161152c565b505050505050565b815167ffffffffffffffff811115611561576115616112d9565b6115758161156f84546113fe565b846114f9565b602080601f8311600181146115aa57600084156115925750858301515b600019600386901b1c1916600185901b17855561153f565b600085815260208120601f198616915b828110156115d9578886015182559484019460019091019084016115ba565b50858210156115f75787850151600019600388901b60f8161c191681555b5050505050600190811b01905550565b60208082526032908201527f4552433732313a207472616e7366657220746f206e6f6e20455243373231526560408201527131b2b4bb32b91034b6b83632b6b2b73a32b960711b606082015260800190565b6001600160a01b038581168252841660208201526040810183905260806060820181905260009061168c90830184611136565b9695505050505050565b6000602082840312156116a857600080fd5b8151610e6c816110df56fea2646970667358221220eda15dfb3b0f7933c9a30fbba6691be420e709ccde23042632972ac3fdf517ac64736f6c63430008130033",
    "sourcePath": "/media/ashish_kumar/New Volume/nft-marketplace/Contracts/contracts/NFTMarketplace.sol",
    "compiler": {
        "name": "solc",
        "version": "0.8.19+commit.7dd6d404"
    },
    "functionHashes": {
        "approve(address,uint256)": "095ea7b3",
        "balanceOf(address)": "70a08231",
        "getApproved(uint256)": "081812fc",
        "isApprovedForAll(address,address)": "e985e9c5",
        "mintToken(string)": "33eba49a",
        "name()": "06fdde03",
        "ownerOf(uint256)": "6352211e",
        "safeTransferFrom(address,address,uint256)": "42842e0e",
        "safeTransferFrom(address,address,uint256,bytes)": "b88d4fde",
        "setApprovalForAll(address,bool)": "a22cb465",
        "supportsInterface(bytes4)": "01ffc9a7",
        "symbol()": "95d89b41",
        "tokenURI(uint256)": "c87b56dd",
        "transferFrom(address,address,uint256)": "23b872dd"
    },
    "gasEstimates": {
        "creation": {
            "codeDepositCost": "1173000",
            "executionCost": "infinite",
            "totalCost": "infinite"
        },
        "external": {
            "approve(address,uint256)": "infinite",
            "balanceOf(address)": "2634",
            "getApproved(uint256)": "4792",
            "isApprovedForAll(address,address)": "infinite",
            "mintToken(string)": "infinite",
            "name()": "infinite",
            "ownerOf(uint256)": "2561",
            "safeTransferFrom(address,address,uint256)": "infinite",
            "safeTransferFrom(address,address,uint256,bytes)": "infinite",
            "setApprovalForAll(address,bool)": "26705",
            "supportsInterface(bytes4)": "infinite",
            "symbol()": "infinite",
            "tokenURI(uint256)": "infinite",
            "transferFrom(address,address,uint256)": "infinite"
        }
    }
}