{
    "contractName": "NFTMarketplace",
    "abi": [
        {
            "inputs": [
                {
                    "internalType": "address",
                    "name": "_nftContract",
                    "type": "address"
                }
            ],
            "stateMutability": "nonpayable",
            "type": "constructor"
        },
        {
            "anonymous": false,
            "inputs": [
                {
                    "indexed": true,
                    "internalType": "uint256",
                    "name": "tokenId",
                    "type": "uint256"
                },
                {
                    "indexed": false,
                    "internalType": "uint256",
                    "name": "price",
                    "type": "uint256"
                }
            ],
            "name": "NFTListed",
            "type": "event"
        },
        {
            "anonymous": false,
            "inputs": [
                {
                    "indexed": true,
                    "internalType": "address",
                    "name": "owner",
                    "type": "address"
                },
                {
                    "indexed": true,
                    "internalType": "uint256",
                    "name": "tokenId",
                    "type": "uint256"
                },
                {
                    "indexed": false,
                    "internalType": "string",
                    "name": "name",
                    "type": "string"
                },
                {
                    "indexed": false,
                    "internalType": "string",
                    "name": "tokenURI",
                    "type": "string"
                }
            ],
            "name": "NFTMinted",
            "type": "event"
        },
        {
            "anonymous": false,
            "inputs": [
                {
                    "indexed": true,
                    "internalType": "address",
                    "name": "buyer",
                    "type": "address"
                },
                {
                    "indexed": true,
                    "internalType": "uint256",
                    "name": "tokenId",
                    "type": "uint256"
                },
                {
                    "indexed": false,
                    "internalType": "uint256",
                    "name": "price",
                    "type": "uint256"
                }
            ],
            "name": "NFTSold",
            "type": "event"
        },
        {
            "inputs": [
                {
                    "internalType": "address",
                    "name": "",
                    "type": "address"
                },
                {
                    "internalType": "uint256",
                    "name": "",
                    "type": "uint256"
                }
            ],
            "name": "MintedNFTs",
            "outputs": [
                {
                    "internalType": "uint256",
                    "name": "",
                    "type": "uint256"
                }
            ],
            "stateMutability": "view",
            "type": "function"
        },
        {
            "inputs": [],
            "name": "getAllListedNFTs",
            "outputs": [
                {
                    "components": [
                        {
                            "internalType": "address",
                            "name": "owner",
                            "type": "address"
                        },
                        {
                            "internalType": "uint256",
                            "name": "tokenId",
                            "type": "uint256"
                        },
                        {
                            "internalType": "uint256",
                            "name": "price",
                            "type": "uint256"
                        },
                        {
                            "internalType": "bool",
                            "name": "isForSale",
                            "type": "bool"
                        }
                    ],
                    "internalType": "struct NFTMarketplace.NFTListing[]",
                    "name": "",
                    "type": "tuple[]"
                }
            ],
            "stateMutability": "view",
            "type": "function"
        },
        {
            "inputs": [
                {
                    "internalType": "address",
                    "name": "user",
                    "type": "address"
                }
            ],
            "name": "getOwnedNFTs",
            "outputs": [
                {
                    "internalType": "uint256[]",
                    "name": "",
                    "type": "uint256[]"
                }
            ],
            "stateMutability": "view",
            "type": "function"
        },
        {
            "inputs": [
                {
                    "internalType": "uint256",
                    "name": "tokenId",
                    "type": "uint256"
                },
                {
                    "internalType": "uint256",
                    "name": "price",
                    "type": "uint256"
                }
            ],
            "name": "listNFTForSale",
            "outputs": [],
            "stateMutability": "nonpayable",
            "type": "function"
        },
        {
            "inputs": [
                {
                    "internalType": "address",
                    "name": "",
                    "type": "address"
                },
                {
                    "internalType": "uint256",
                    "name": "",
                    "type": "uint256"
                }
            ],
            "name": "listedNFTs",
            "outputs": [
                {
                    "internalType": "uint256",
                    "name": "",
                    "type": "uint256"
                }
            ],
            "stateMutability": "view",
            "type": "function"
        },
        {
            "inputs": [
                {
                    "internalType": "string",
                    "name": "name",
                    "type": "string"
                },
                {
                    "internalType": "string",
                    "name": "tokenURI",
                    "type": "string"
                }
            ],
            "name": "mintNFT",
            "outputs": [],
            "stateMutability": "nonpayable",
            "type": "function"
        },
        {
            "inputs": [],
            "name": "nftContract",
            "outputs": [
                {
                    "internalType": "address",
                    "name": "",
                    "type": "address"
                }
            ],
            "stateMutability": "view",
            "type": "function"
        },
        {
            "inputs": [
                {
                    "internalType": "uint256",
                    "name": "",
                    "type": "uint256"
                }
            ],
            "name": "nftListings",
            "outputs": [
                {
                    "internalType": "address",
                    "name": "owner",
                    "type": "address"
                },
                {
                    "internalType": "uint256",
                    "name": "tokenId",
                    "type": "uint256"
                },
                {
                    "internalType": "uint256",
                    "name": "price",
                    "type": "uint256"
                },
                {
                    "internalType": "bool",
                    "name": "isForSale",
                    "type": "bool"
                }
            ],
            "stateMutability": "view",
            "type": "function"
        },
        {
            "inputs": [
                {
                    "internalType": "uint256",
                    "name": "tokenId",
                    "type": "uint256"
                }
            ],
            "name": "purchaseNFT",
            "outputs": [],
            "stateMutability": "payable",
            "type": "function"
        }
    ],
    "bytecode": "608060405266071afd498d000060035534801561001b57600080fd5b50604051610f61380380610f6183398101604081905261003a9161005f565b600280546001600160a01b0319166001600160a01b039290921691909117905561008f565b60006020828403121561007157600080fd5b81516001600160a01b038116811461008857600080fd5b9392505050565b610ec38061009e6000396000f3fe6080604052600436106100865760003560e01c806360589db81161005957806360589db8146101265780637c5bb03d14610146578063b2733b39146101c1578063d56d229d146101e1578063e96055441461021957600080fd5b8063150bde031461008b57806318148f1b146100a05780631a6ef8bd146100d65780634b58ffaa14610104575b600080fd5b61009e610099366004610b02565b610239565b005b3480156100ac57600080fd5b506100c06100bb366004610b33565b6104b9565b6040516100cd9190610b57565b60405180910390f35b3480156100e257600080fd5b506100f66100f1366004610b9b565b610525565b6040519081526020016100cd565b34801561011057600080fd5b50610119610556565b6040516100cd9190610bc7565b34801561013257600080fd5b506100f6610141366004610b9b565b6106ad565b34801561015257600080fd5b50610195610161366004610b02565b60046020526000908152604090208054600182015460028301546003909301546001600160a01b0390921692909160ff1684565b604080516001600160a01b039095168552602085019390935291830152151560608201526080016100cd565b3480156101cd57600080fd5b5061009e6101dc366004610c36565b6106c9565b3480156101ed57600080fd5b50600254610201906001600160a01b031681565b6040516001600160a01b0390911681526020016100cd565b34801561022557600080fd5b5061009e610234366004610cfb565b6108ae565b600081815260046020908152604091829020825160808101845281546001600160a01b0316815260018201549281019290925260028101549282019290925260039091015460ff161515606082018190526102d15760405162461bcd60e51b81526020600482015260136024820152724e4654206973206e6f7420666f722073616c6560681b60448201526064015b60405180910390fd5b80604001513410156103255760405162461bcd60e51b815260206004820152601760248201527f496e73756666696369656e742045746865722073656e7400000000000000000060448201526064016102c8565b80516103316000610aab565b6002546040516323b872dd60e01b81526001600160a01b03838116600483015233602483015260448201869052909116906323b872dd90606401600060405180830381600087803b15801561038557600080fd5b505af1158015610399573d6000803e3d6000fd5b505050506000816001600160a01b03163460405160006040518083038185875af1925050503d80600081146103ea576040519150601f19603f3d011682016040523d82523d6000602084013e6103ef565b606091505b50509050806104405760405162461bcd60e51b815260206004820152601960248201527f5472616e7366657220746f2073656c6c6572206661696c65640000000000000060448201526064016102c8565b600084815260046020908152604080832080546001600160a01b03191681556001810184905560028101939093556003909201805460ff19169055848201519151918252859133917f90c126d08c53e7f57ef4e11eb379ae5bc0e2489ee38eeb36ecfcaec81fe04021910160405180910390a350505050565b6001600160a01b03811660009081526005602090815260409182902080548351818402810184019094528084526060939283018282801561051957602002820191906000526020600020905b815481526020019060010190808311610505575b50505050509050919050565b6006602052816000526040600020818154811061054157600080fd5b90600052602060002001600091509150505481565b60606000600161056560005490565b61056f9190610d75565b67ffffffffffffffff81111561058757610587610c58565b6040519080825280602002602001820160405280156105d957816020015b6040805160808101825260008082526020808301829052928201819052606082015282526000199092019101816105a55790505b509050600060015b60016105ec60005490565b6105f69190610d75565b81116106a55760008181526004602052604090206003015460ff161561069357600081815260046020908152604091829020825160808101845281546001600160a01b0316815260018201549281019290925260028101549282019290925260039091015460ff1615156060820152835184908490811061067957610679610d8e565b6020026020010181905250818061068f90610da4565b9250505b8061069d81610da4565b9150506105e1565b509092915050565b6005602052816000526040600020818154811061054157600080fd5b6002546040516331a9108f60e11b81526004810184905233916001600160a01b031690636352211e90602401602060405180830381865afa158015610712573d6000803e3d6000fd5b505050506040513d601f19601f820116820180604052508101906107369190610dbd565b6001600160a01b03161461078c5760405162461bcd60e51b815260206004820152601f60248201527f596f752063616e206f6e6c79206c69737420796f7572206f776e204e4654730060448201526064016102c8565b600081116107dc5760405162461bcd60e51b815260206004820152601f60248201527f5072696365206d7573742062652067726561746572207468616e207a65726f0060448201526064016102c8565b6107ea600080546001019055565b6040805160808101825233808252602080830186815283850186815260016060860181815260008a815260048652888120975188546001600160a01b0319166001600160a01b039091161788559351878301559151600287015590516003909501805460ff1916951515959095179094559182526005815283822080549384018155825290819020909101849055905182815283917fa6cd73580a273eec6c1026108f6b63479fbaef5356dde4ff43e4b38dd187485f910160405180910390a25050565b60008251116108f85760405162461bcd60e51b81526020600482015260166024820152754e616d65206d757374206e6f7420626520656d70747960501b60448201526064016102c8565b60008151116109495760405162461bcd60e51b815260206004820152601b60248201527f546f6b656e20555249206d757374206e6f7420626520656d707479000000000060448201526064016102c8565b600254604080516318160ddd60e01b815290516000926001600160a01b0316916318160ddd9160048083019260209291908290030181865afa158015610993573d6000803e3d6000fd5b505050506040513d601f19601f820116820180604052508101906109b79190610dda565b6109c2906001610df3565b6002546040516319f5d24d60e11b81529192506001600160a01b0316906333eba49a906109f3908590600401610e4c565b6020604051808303816000875af1158015610a12573d6000803e3d6000fd5b505050506040513d601f19601f82011682018060405250810190610a369190610dda565b503360009081526006602090815260408220805460018082018355918452919092200182905580548101905580336001600160a01b03167fe260f93729f4de5d60ff8d8ab8c7e6afc76218c4cc0f6f7e617398e20a358a2d8585604051610a9e929190610e5f565b60405180910390a3505050565b805480610afa5760405162461bcd60e51b815260206004820152601b60248201527f436f756e7465723a2064656372656d656e74206f766572666c6f77000000000060448201526064016102c8565b600019019055565b600060208284031215610b1457600080fd5b5035919050565b6001600160a01b0381168114610b3057600080fd5b50565b600060208284031215610b4557600080fd5b8135610b5081610b1b565b9392505050565b6020808252825182820181905260009190848201906040850190845b81811015610b8f57835183529284019291840191600101610b73565b50909695505050505050565b60008060408385031215610bae57600080fd5b8235610bb981610b1b565b946020939093013593505050565b602080825282518282018190526000919060409081850190868401855b82811015610c2957815180516001600160a01b031685528681015187860152858101518686015260609081015115159085015260809093019290850190600101610be4565b5091979650505050505050565b60008060408385031215610c4957600080fd5b50508035926020909101359150565b634e487b7160e01b600052604160045260246000fd5b600082601f830112610c7f57600080fd5b813567ffffffffffffffff80821115610c9a57610c9a610c58565b604051601f8301601f19908116603f01168101908282118183101715610cc257610cc2610c58565b81604052838152866020858801011115610cdb57600080fd5b836020870160208301376000602085830101528094505050505092915050565b60008060408385031215610d0e57600080fd5b823567ffffffffffffffff80821115610d2657600080fd5b610d3286838701610c6e565b93506020850135915080821115610d4857600080fd5b50610d5585828601610c6e565b9150509250929050565b634e487b7160e01b600052601160045260246000fd5b81810381811115610d8857610d88610d5f565b92915050565b634e487b7160e01b600052603260045260246000fd5b600060018201610db657610db6610d5f565b5060010190565b600060208284031215610dcf57600080fd5b8151610b5081610b1b565b600060208284031215610dec57600080fd5b5051919050565b80820180821115610d8857610d88610d5f565b6000815180845260005b81811015610e2c57602081850181015186830182015201610e10565b506000602082860101526020601f19601f83011685010191505092915050565b602081526000610b506020830184610e06565b604081526000610e726040830185610e06565b8281036020840152610e848185610e06565b9594505050505056fea26469706673582212200c2b40b033f6a000b26e1babfbb0b29543b10063c412a26fe77aee85bb28459b64736f6c63430008130033",
    "sourcePath": "/media/ashish_kumar/New Volume/nft-marketplace/Contracts/contracts/NFTMarketplace.sol",
    "compiler": {
        "name": "solc",
        "version": "0.8.19+commit.7dd6d404"
    },
    "functionHashes": {
        "MintedNFTs(address,uint256)": "1a6ef8bd",
        "getAllListedNFTs()": "4b58ffaa",
        "getOwnedNFTs(address)": "18148f1b",
        "listNFTForSale(uint256,uint256)": "b2733b39",
        "listedNFTs(address,uint256)": "60589db8",
        "mintNFT(string,string)": "e9605544",
        "nftContract()": "d56d229d",
        "nftListings(uint256)": "7c5bb03d",
        "purchaseNFT(uint256)": "150bde03"
    },
    "gasEstimates": {
        "creation": {
            "codeDepositCost": "755800",
            "executionCost": "infinite",
            "totalCost": "infinite"
        },
        "external": {
            "MintedNFTs(address,uint256)": "4783",
            "getAllListedNFTs()": "infinite",
            "getOwnedNFTs(address)": "infinite",
            "listNFTForSale(uint256,uint256)": "infinite",
            "listedNFTs(address,uint256)": "4738",
            "mintNFT(string,string)": "infinite",
            "nftContract()": "2403",
            "nftListings(uint256)": "8916",
            "purchaseNFT(uint256)": "infinite"
        }
    }
}